:107000000C942A380C9447380C9447380C94473821
:107010000C9447380C9447380C9447380C944738F4
:107020000C9447380C9447380C9447380C944738E4
:107030000C9447380C9447380C9447380C944738D4
:107040000C9447380C9447380C9447380C944738C4
:107050000C94473811241FBECFE5D8E0DEBFCDBF6A
:1070600010E0A0E6B0E0EEE3F4E702C005900D9278
:10707000AA37B107D9F710E0AAE7B0E001C01D9226
:10708000AF3FB107E1F70E9449380C941D3A0C94C8
:10709000003880E090E00E94B43980937A0081E06B
:1070A00090E00E94B43980937B0080E00E94073A10
:1070B00080917A00813021F480917B00813011F53C
:1070C00083E061E040E00E94873883E062E042E0D4
:1070D0000E9487388BE790E00E94FE3880E00E9493
:1070E000F13980917B00813051F410927B0081E076
:1070F00090E060E00E94BB3981E00E9406390E9466
:107100006839EFCF0C94000080E090E008954130A2
:1071100091F0413018F0423089F524C0E82FF0E0BA
:10712000EE0FFF1FE059FF4F0190F081E02D8081AD
:107130006095862315C0A82FB0E0AA0FBB1FFD01E4
:10714000E059FF4F0190F081E02D8081962F9095BE
:1071500089238083A859BF4FED91FC918081862BB4
:1071600080830895E82FF0E0EE0FFF1FE059FF4FF6
:107170000190F081E02D8081862B80830895442347
:1071800019F04130D9F40EC0E82FF0E0EE0FFF1FE8
:10719000E859FF4F0190F081E02D808160958623B2
:1071A00080830895E82FF0E0EE0FFF1FE859FF4FAE
:1071B0000190F081E02D8081862B80830895E82F57
:1071C000F0E0EE0FFF1FE859FF4F0190F081E02D36
:1071D0008081862780830895DA01E82FF0E0EE0FA2
:1071E000FF1FE05AFF4F0190F081E02D8081862340
:1071F00011F41C92089581E08C93089528E92AB92E
:1072000026E820BD89B99F7790BD0895982F8BB14E
:1072100082958695877080FF04C09CB95E9BFECFE7
:107220005E9A0895FC015F9BFECF8CB18083089528
:107230000F931F93CF93DF93DC01EB017FB7F8949B
:10724000B695BA2FAA27B795A79507B600FCFDCF2C
:10725000E199FECF83E0FD0180935700E89507B6E2
:1072600000FCFDCF40E050E061E0988189812296EA
:1072700007B600FCFDCFE199FECFFA01EA0FFB1F34
:10728000382F20E08901090F111D08016093570074
:10729000E89511244E5F5F4F4038510531F707B62E
:1072A00000FCFDCFE199FECF85E0FD018093570002
:1072B000E89507B600FCFDCFE199FECF81E1809310
:1072C0005700E8957FBFDF91CF911F910F910895EF
:1072D0008DE790E00E94123990917D00913049F441
:1072E000809178008130B1F40E94063910927800C4
:1072F0000895992379F480917800813059F480E0E1
:107300000E94DB3980E090E061E00E94BB390C9480
:10731000000008958091FE00E82FF0E0E258FF4F52
:10732000908307C090E082589F4F0E94123980914D
:10733000FE008F5F8093FE008091FE0087FFF2CFFA
:1073400080917C0090E06EE770E00E941839809197
:107350007C008F5F80937C001092FE0081E0809320
:1073600078000E9406390895E199FECF9FBB8EBB3D
:10737000E09A8DB30895E199FECF9FBB8EBBE09A52
:107380008DB3861719F06DBBE29AE19A08958130AA
:1073900041F0813018F0823069F408C082E064E086
:1073A00002C082E060E80E94DF38089583E068E070
:1073B0000E94DF380895813041F0813018F082302A
:1073C00079F409C082E064E002C082E060E840E055
:1073D0000E94BF38089583E068E040E00E94BF3813
:1073E0000895813041F0813018F0823079F409C07D
:1073F00082E064E002C082E060E841E00E94BF38C1
:10740000089583E068E041E00E94BF38089581302C
:1074100041F0813018F0823079F409C082E064E0F4
:1074200002C082E060E842E00E948738089583E06D
:0E74300068E042E00E9487380895F894FFCF8C
:10743E0039003600330030003B0038003500320092
:0A744E003A0037003400310001005D
:040000030000700089
:00000001FF
