:100000000C942A000C943C000C943C000C943C0092
:100010000C943C000C943C000C943C000C943C0070
:100020000C943C000C943C000C943C000C943C0060
:100030000C943C000C94DC020C943C000C943C00AE
:100040000C943C000C943C000C943C000C943C0040
:100050000C943C0011241FBECFE5D8E0DEBFCDBF1D
:1000600010E0A0E6B0E001C01D92A236B107E1F7B2
:100070000E943E000C9428030C94000084E460E08D
:1000800040E00E94690084E461E041E00E94690070
:1000900087E690E00E94C30284E463E041E00E94AE
:1000A000690084E463E041E00E94DB000E940D03EC
:1000B0000E94D7028130E1F784E463E040E00E94CF
:1000C000DB0081E090E061E00E941C030C940038AA
:1000D000EFCF823429F1833420F4813409F06AC0EF
:1000E00006C08334B1F1843409F064C04BC04130A0
:1000F00059F42AB381E090E002C0880F991F6A95F5
:10010000E2F7282B2ABB08952AB381E090E002C0D1
:10011000880F991F6A95E2F7809582238ABB08951C
:10012000413059F427B381E090E002C0880F991F55
:100130006A95E2F7282B27BB089527B381E090E06A
:1001400002C0880F991F6A95E2F78095822387BBCA
:100150000895413059F424B381E090E002C0880F43
:10016000991F6A95E2F7282B24BB089524B381E0F8
:1001700090E002C0880F991F6A95E2F7809582236C
:1001800084BB0895413059F421B381E090E002C06E
:10019000880F991F6A95E2F7282B21BB089521B398
:1001A00081E090E002C0880F991F6A95E2F7809580
:1001B000822381BB0895823429F1833420F4813471
:1001C00009F06AC006C08334B1F1843409F064C018
:1001D0004BC0413059F42BB381E090E002C0880F4E
:1001E000991F6A95E2F7282B2BBB08952BB381E06A
:1001F00090E002C0880F991F6A95E2F780958223EC
:100200008BBB0895413059F428B381E090E002C0DF
:10021000880F991F6A95E2F7282B28BB089528B309
:1002200081E090E002C0880F991F6A95E2F78095FF
:10023000822388BB0895413059F425B381E090E0D2
:1002400002C0880F991F6A95E2F7282B25BB0895F5
:1002500025B381E090E002C0880F991F6A95E2F70C
:100260008095822385BB0895413059F422B381E003
:1002700090E002C0880F991F6A95E2F7282B22BBF5
:10028000089522B381E090E002C0880F991F6A951B
:10029000E2F78095822382BB0895823469F083342B
:1002A00018F4813429F406C0833441F08434C1F059
:1002B00080E0089529B303C026B301C023B381E0D1
:1002C00090E0062E02C0880F991F0A94E2F730E0F2
:1002D0008223932302C0959587956A95E2F7089546
:1002E00020B381E090E0062E02C0880F991F0A9487
:1002F000E2F730E08223932302C0959587956A95B3
:10030000E2F708958234A9F0833418F4813489F532
:1003100005C08334C9F0843461F521C02BB381E07A
:1003200090E002C0880F991F6A95E2F728272BBB3F
:10033000089528B381E090E002C0880F991F6A9564
:10034000E2F7282728BB089525B381E090E002C09A
:10035000880F991F6A95E2F7282725BB089522B3D5
:1003600081E090E002C0880F991F6A95E2F7282784
:1003700022BB0895823461F0833418F4813469F427
:1003800005C0833439F0843441F406C06ABB089553
:1003900067BB089564BB089561BB0895823461F022
:1003A000833418F4813469F405C0833439F084341B
:1003B00041F406C06BBB089568BB089565BB089502
:1003C00062BB0895823469F0833418F4813429F4CF
:1003D00006C0833441F0843441F080E0089589B34D
:1003E000089586B3089583B3089580B30895823441
:1003F00049F1833424F4813409F077C007C0833491
:1004000009F43CC0843409F070C054C0772767FDFC
:100410007095413059F42BB381E090E002C0880F11
:10042000991F6A95E2F7282B2BBB08952BB381E027
:1004300090E002C0880F991F6A95E2F780958223A9
:100440008BBB0895772767FD7095413059F428B329
:1004500081E090E002C0880F991F6A95E2F7282B8F
:1004600028BB089528B381E090E002C0880F991F4F
:100470006A95E2F78095822388BB0895772767FD08
:100480007095413059F425B381E090E002C0880FA7
:10049000991F6A95E2F7282B25BB089525B381E0C3
:1004A00090E002C0880F991F6A95E2F78095822339
:1004B00085BB0895772767FD7095413059F422B3C5
:1004C00081E090E002C0880F991F6A95E2F7282B1F
:1004D00022BB089522B381E090E002C0880F991FEB
:1004E0006A95E2F78095822382BB08956F7082340B
:1004F00081F0833418F48134F1F405C0833479F049
:100500008434C9F412C08BB3807F8BBB8BB3862B32
:100510008BBB88B3807F88BB88B3862B88BB85B3B1
:10052000807F85BB85B3862B85BB82B3807F82BBF2
:1005300082B3682B62BB08956295607F823481F03C
:10054000833418F48134F1F405C0833479F08434B1
:10055000C9F412C08BB38F708BBB8BB3862B8BBB54
:1005600088B38F7088BB88B3862B88BB85B38F70A8
:1005700085BB85B3862B85BB82B38F7082BB82B36C
:10058000682B62BB089528E92AB926E820BD89B9FD
:100590009F7790BD08955D9B03C08CB98BB15E9A27
:1005A0000895FC015F9B02C08CB180830895809107
:1005B00060008093610008951F920F920FB60F9212
:1005C00011242F933F934F935F936F937F938F9358
:1005D0009F93AF93BF93EF93FF935F9B03C08CB147
:1005E0008093600080916000813019F480936100F5
:1005F00003C080E00E94CB02FF91EF91BF91AF91C9
:100600009F918F917F916F915F914F913F912F912A
:100610000F900FBE0F901F9018958FB780688FBFF7
:1006200008958FB78F778FBF0895E199FECF9FBB55
:100630008EBBE09A8DB30895E199FECF9FBB8EBB30
:10064000E09A8DB3861719F06DBBE29AE19A08958E
:04065000F894FFCF4C
:00000001FF
